:1002F500759840539BEC439B0C759AFA439B10C22F
:10030500AC75B74075B840D2A8D288D2AAD28A7542
:100315008912758AFC758CFCD28C75D80075D90448
:1003250075F90075E90075DA0075DB0075DC007597
:10033500DD0075DE00C2A7D2AED2AFC290C291A2D7
:10034500B1E433F516C333FBA2B0E4332BF51685C0
:1003550016171209A77F017D01120A087B057A028B
:1003650079801209E17F027D01120A087B057A0274
:1003750079901209E17F037D01120A087B057A0253
:10038500799F1209E17F047D02120A08E5161460BF
:090395000814601B14600D801FA8
:10039E007B057A0279AE1209E180147B057A027927
:1003AE00BC1209E180097B057A0279CA1209E1D2F1
:0103BE00003E
:0303BF003001FD0D
:1003C200C201C2A7120A387F017D02120A087521F2
:1003D20001E4FCFD7932E7FE09E7FF793AE4FA7BB2
:1003E20001120663793AE4FA7B011209E17F027D88
:1003F20002120A08752102E4FCFD7934E7FE09E7DE
:10040200FF794EE4FA7B01120663794EE4FA7B012E
:100412001209E17F037D02120A08752103E4FCFD43
:100422007936E7FE09E7FF7962E4FA7B0112066397
:100432007962E4FA7B011209E17F047D02120A0863
:10044200752104E4FCFD7938E7FE09E7FF7976E4DB
:10045200FA7B011206637976E4FA7B011209E17BE9
:10046200057A0279D8120A597B057A0279E6120ACC
:1004720059793AE4FA7B01120A59794EE4FA7B017E
:10048200120A597962E4FA7B01120A597976E4FA7E
:100492007B01120A597B057A0279E6120A59020394
:0104A200BF9A
:0A04A300C0E0C0D075D00830DF08BB
:0B04AD0075D80075D904D20130DC1CAA
:1004B800C2DC75DE0075DA1175DB1175DC1175DDCE
:0F04C8001175E90075F90075D905D2DE30D8122B
:1004D700C2D8E5FAFAE5EAFDEA7938F709A70D7512
:0504E700DA0030D9121B
:1004EC00C2D9E5FBFAE5EBFDEA7936F709A70D75FC
:0504FC00DB0030DA1204
:10050100C2DAE5FCFAE5ECFDEA7934F709A70D75E5
:05051100DC0030DB12EC
:10051600C2DBE5FDFAE5EDFDEA7932F709A70D75CF
:07052600DD00D0D0D0E0326F
:10052D00C0E0C0F0C083C082C0D0C000C001C00216
:0E053D00C003C004C005C006EFC0073000397F
:10054B00120997120A387F027D04120A087B057A7A
:10055B000279EB1209E1D2A77932E4F709F7793482
:10056B00F709F77936F709F77938F709F7F5E9F568
:10057B00F9F5D875D90475DE21D007D006D005D092
:10058B0004D003D002D001D000D0D0D082D083D001
:04059B00F0D0E0328A
:10059F00C0E0C0F0C083C082C0D0C000C001C002A4
:1005AF00C003C004C005C006EFC007200003020649
:0105BF0048F3
:1005C000120997D290751500E515B408005007126E
:1005D0000987051580F2120967C290A2B1E433F5CC
:1005E00016C333FBA2B0E4332BF516E516603214C4
:0A05F000600814601B1460078047C8
:1005FA0012096780421209671209771209771209EC
:10060A00771209778031751500E515B4090050276E
:10061A00120977051580F2751500E515B40C00501E
:10062A0007120977051580F212098712098712093C
:10063A0087120987120987D291120977C291D007C6
:10064A00D006D005D004D003D002D001D000D0D03B
:09065A00D082D083D0F0D0E03250
:100663008C228D238E248F258B268A278928AB26DF
:10067300AA27A928E412023974431202390528E58E
:100683002870040527E527AA27A9287468120239C8
:100693000528E52870040527E527AA27A928742338
:1006A3001202390528E52870040527E527E52124EA
:1006B30030AA27A9281202390528E528700405273E
:1006C300E527AA27A928743A1202390528E52870D4
:1006D300040527E527AA27A928742012023905282B
:1006E300E52870040527E527C022C023C024C025C0
:1006F300E4FCFD74FCFEE4FF1201EBBFFF02800388
:030703000208C425
:10070600C022C023C024C025E4FEFCFD740AFF12EB
:1007160000368C228D238E248F25C022C023C02430
:10072600C025E4FCFD7412FEE4FF12009F8C298DA7
:100736002A8E2B8F2CC022C023C024C025C029C0DE
:100746002AC02BC02CE4FCFD7412FEE4FF12003616
:100756001201928C2D8D2E8E2F8F30C02DC02EC063
:100766002FC030E4FEFCFD740AFF120036C004C040
:1007760005C006C007E4FCFD7412FEE4FF1201B0DA
:100786008C2D8D2E8E2F8F30C029C02AC02BC02CC9
:10079600E4FEFCFD7464FF1201B08F31E5312430B4
:1007A600AB26AA27A9281202390528E528700405D0
:1007B60027E527C029C02AC02BC02C75F064E53177
:1007C6003395E0E531A4FFAEF0E5F033E4500114D3
:1007D600FCFD1201928C298D2A8E2B8F2CC029C0EC
:1007E6002AC02BC02CE4FEFCFD740AFF1201B08F58
:1007F60031E5312430AB26AA27A92812023905286B
:10080600E52870040527E527C029C02AC02BC02C7F
:1008160075F00AE5313395E0E531A4FFAEF0E5F079
:1008260033E4500114FCFD1201928C298D2A8E2B83
:100836008F2C852C31E5312430AA27A928120239BC
:100846000528E52870040527E527AA27A928742E78
:100856001202390528E52870040527E527C02DC0B2
:100866002EC02FC030E4FEFCFD7430FF120182EF73
:10087600AA27A9281202390528E52870040527E5C4
:1008860027AA27A92874201202390528E52870040A
:02089600052734
:10089800E527AA27A928746D1202390528E52870CA
:1008A800040527E527AA27A9287473120239052801
:0C08B800E528600302095C052702095CCA
:1008C400AB26AA27A928744F1202390528E52870F7
:1008D400040527E527AA27A92874761202390528D2
:1008E400E52870040527E527AA27A92874651202BC
:1008F400390528E52870040527E527AA27A92874BF
:10090400721202390528E52870040527E527AA276D
:10091400A92874661202390528E52870040527E51C
:1009240027AA27A928746C1202390528E52870041F
:100934000527E527AA27A928746F1202390528E597
:100944002870040527E527AA27A9287477120239F5
:100954000528E52870020527AB26AA27A928E41252
:0309640002392233
:10096700758B90758DFED28E308FFDC28EC28F2211
:10097700758B00758DB8D28E308FFDC28EC28F22D7
:10098700758BCD758DF8D28E308FFDC28EC28F22BA
:10099700758B00758D04D28E308FFDC28EC28F226B
:1009A7007F381200257F381200257F381200257FF7
:0A09B700061200257F0C1200252215
:0B09C100D287D2A3C2A2D2A5308706C5
:0709CC00C2A3D2A380F722B1
:0E0025008F80C2A2C2A5D2A3C2A31209C1221B
:0E09D3008F80D2A2C2A5D2A3C2A31209C12254
:1009E100EBFDEAFCE9F8EDFBECFAE8F912025560DF
:1009F10015EDFBECFAE8F908E870020CEC1202556F
:070A0100FF1209D380E0227F
:100A08008F06EE14600A14600F1460141460192223
:100A1800ED247FFF12002522ED24BFFF12002522BE
:100A2800ED248FFF12002522ED24CFFF120025228E
:0F0A38007F011200257F001209670FBF64F922AA
:100A4700D2993099FDC2998F993099FDC2991209AF
:020A57009722E4
:100A5900EBFDEAFCE9F8EDFBECFAE8F91202556066
:010A69001478
:100A6A00EDFBECFAE8F9120255FF120A4708E870A2
:0F0A7A00E40C80E17F0D120A477F0A120A47221F
:0300130002059F44
:0300030002052DC6
:030033000204A321
:1002800054696D6520204D6561737572696E6700F4
:1002900020556E69742028544D552D303129005257
:1002A000616E67653A20312D3133356D73004465D9
:1002B0006C6179203D202031306D730044656C61A4
:1002C00079203D202035306D730044656C617920C4
:1002D0003D203130306D7300556E69742028544DC7
:1002E000552D303129003D3D3D3D00544D552052A6
:0502F000656164790066
:03000000020016E5
:0F00160075818AE478FFF6D8FD75A0FF0202F528
:10023900CB30E11520E00FC083C08289828A83CB4D
:0C024900F0D082D08322CBF322CBF7222E
:10025500EB30E11320E00EC083C08289828A83E0FF
:10026500D082D08322E3226405700EC083C08289C8
:0B027500828A8393D082D08322E7228C
:10003600E58124FEF9EFF887F0A4FFE7C5F0CEFAD4
:10004600A42EFE500205F0E7C5F0CDFBA42DFD5011
:100056000205F0E7C5F0CCA42CFC19E7601C88F07B
:10006600A42EFEE5F03DFD50010C87F0EAA42DFD1F
:10007600E5F03CFC87F0EBA42CFC19E7600F88F058
:10008600A42DFDE5F03CFC87F0EAA42CFC19E76002
:090096000588F0A42CFC02021BF9
:10009F00E58124FEF9C2D1EC7060ED4E7076EFB4BD
:1000AF001000402C7B007A20C3E733F719E733F7B2
:1000BF0019E733F719E733F7090909EB33FB92D542
:1000CF00C3EB9F20D5024002FB07DADC8BF08021C7
:1000DF00191919E78FF084F7097B03E5F0D7C7C427
:1000EF008FF084C4C7C445F0C48FF084D709DBEB0D
:1000FF0019E4FAFBC5F0F802016EE4C7FB19E4C777
:10010F00F819E4C7F5F019E4CBC7FA0909097583A3
:07011F000802013602012D68
:10012600E58124FEF9C2D1E4F8F5F0FAFB758320E7
:10013600C3758204E733F719D582F909090909E875
:1001460033F8E5F033F5F0EA33FAEB33FBE89FE5F5
:10015600F09EEA9DEB9C400D07CBE89FC8E5F09E1C
:10016600C5F0EA9DCAD583C8E7FF19E7FE19E7FD82
:0C01760019E7FC30D1031201A202021BA9
:1001820012022AC380021819E637F6DAF902021BB4
:1001920012022AC380021819E796F6DAF902021B44
:0E01A200C3E49FFFE49EFEE49DFDE49CFC226E
:1001B000E58124FEF9C2D1EC30E705D2D11201A2CB
:1001C000191919E730E70FB2D10909097A04C3E414
:0C01D00097C719DAFA090909090200A60C
:1001DC00E58124FBF9EC6480FCE76480F78005E59D
:1001EC008124FBF9E5D054184404F87A04E687F02E
:1001FC00B5F00A0908DAF6E4FEFF02021BE450042B
:07020C00FE0480F5F480F10F
:1002130074F9800674FA800274FCD083D08225813D
:07022300F581C082C08322B7
:0F022A00E5D054182407F8E58124FCF97A042262
:00000001FF
