:10035800759840539BEC439B0C759AFA439B10C2CB
:10036800AC75B74075B840D2A8D288D2AAD28A75DF
:100378008912758AFC758CFCD28C75D80075D904E5
:1003880075F90075E90075DA0075DB0075DC007534
:10039800DD0075DE00C2A7D2AED2AFC290C291A274
:1003A800B1E433F516C333FBA2B0E4332BF516855D
:1003B800161712087B7F017D011208DC7B057A0283
:1003C80079E51208B57F027D011208DC7B057A0207
:1003D80079F51208B57F037D011208DC7B057A03E5
:1003E80079041208B57F047D021208DCE516146052
:0903F8000814601B14600D801F45
:100401007B057A0379131208B580147B057A037989
:10041100211208B580097B057A03792F1208B5D21C
:0104210000DA
:030422003001673F
:10042500C201C2A712090C751200E512B4040050EE
:010435005670
:10043600E51204FF7D021208DC7B057A03793D1282
:1004460008B5E5122431FF1208A77F3A1208A77FE4
:10045600201208A7E5122379182418F8B6FC0050D4
:01046600187D
:10046700E5122329F886060886071207817B057A95
:080477000379411208B5800968
:10047F007B057A0379451208B5051280A3300293E4
:10048F00C20212086BD290751500E515B408005022
:10049F000712085B051580F212083BC290A2B1E467
:1004AF0033F516C333FBA2B0E4332BF516E5166014
:0C04BF003214600814601B1460078047B2
:1004CB0012083B804212083B12084B12084B1208D1
:1004DB004B12084B8031751500E515B409005027F8
:1004EB0012084B051580F2751500E515B40C00507C
:1004FB000712084B051580F212085B12085B1208F5
:10050B005B12085B12085BD29112084BC29102047A
:01051B0022BD
:0A051C00C0E0C0D075D00830DF0841
:0B05260075D80075D904D20130DC1C30
:10053100C2DC75DE0075DA1175DB1175DC1175DD54
:0F0541001175E90075F90075D905D2DE30D812B1
:10055000C2D8E5FAFAE5EAFDEA791EF709A70D75B2
:05056000DA0030D912A1
:10056500C2D9E5FBFAE5EBFDEA791CF709A70D759C
:05057500DB0030DA128A
:10057A00C2DAE5FCFAE5ECFDEA791AF709A70D7586
:05058A00DC0030DB1273
:10058F00C2DBE5FDFAE5EDFDEA7918F709A70D7570
:07059F00DD00D0D0D0E032F6
:1005A600C0E0C0F0C083C082C0D0C000C001C0029D
:0E05B600C003C004C005C006EFC00730003906
:1005C40012086B12090C7F027D041208DC7B057A89
:1005D40003794E1208B5D2A77918E4F709F7791A06
:1005E400F709F7791CF709F7791EF709F7F5E9F523
:1005F400F9F5D875D90475DE21D007D006D005D019
:1006040004D003D002D001D000D0D0D082D083D087
:04061400F0D0E03210
:10061800C0E0C0F0C083C082C0D0C000C001C0022A
:10062800C003C004C005C006EFC0072000030206CF
:01063800C100
:1006390012086BD290751500E515B4080050071221
:10064900085B051580F212083BC290A2B1E433F5AC
:1006590016C333FBA2B0E4332BF516E5166032144A
:0A066900600814601B14600780474E
:1006730012083B804212083B12084B12084B120827
:100683004B12084B8031751500E515B4090050274E
:1006930012084B051580F2751500E515B40C0050D2
:1006A3000712084B051580F212085B12085B12084B
:1006B3005B12085B12085BD29112084BC291D00700
:1006C300D006D005D004D003D002D001D000D0D0C2
:0906D300D082D083D0F0D0E032D7
:1006DC008C2B8D2C8E2D8F2EC203752F3B75309A43
:0C06EC007531CAE4F532EC4D4E4F70063B
:0906F8007F301208A722753300BF
:10070100C02FC030C031C032AC2BAD2CAE2DAF2EBE
:0D07110012026CBF01028002D203300341CE
:10071E00C02BC02CC02DC02EAC2FAD30AE31AF32A1
:10072E0012009F8F34E5342430FF1208A7C02BC06F
:10073E002CC02DC02EC02FC030C031C032E4FEFC04
:10074E00FDAF341200361201828C2B8D2C8E2D8F24
:10075E002EC02FC030C031C032E4FCFDFE740AFF43
:10076E0012009F8C2F8D308E318F320533E533B4CE
:03077E000A8122CB
:10078100E4FDFCF521F5228E238F24C021C022C077
:1007910023C024FE740AFF1200368C218D228E2381
:1007A1008F24C021C022C023C024E4FCFD7412FEAA
:1007B100E4FF12009F8C258D268E278F28C021C033
:1007C10022C023C024E4FCFD7403FE74E8FF120080
:1007D100368C218D228E238F24C021C022C023C0BC
:1007E10024E4FCFD7412FEE4FF12009F8C218D2293
:1007F1008E238F24C021C022C023C024C025C0263F
:10080100C027C028E4FCFD7403FE74E8FF12003623
:100811001201828E298F2AAC25AD26AE27AF281270
:1008210006DC7F2E1208A7AE29AF2AE4FC7D6412F4
:0A08310001C8EF2430FF1208A722CF
:10083B00758B90758DFED28E308FFDC28EC28F223E
:10084B00758B00758DB8D28E308FFDC28EC28F2204
:10085B00758BCD758DF8D28E308FFDC28EC28F22E7
:10086B00758B00758D04D28E308FFDC28EC28F2298
:10087B007F381200257F381200257F381200257F24
:0A088B00061200257F0C1200252242
:0B089500D287D2A3C2A2D2A5308706F2
:0708A000C2A3D2A380F722DE
:0E0025008F80C2A2C2A5D2A3C2A31208952248
:0E08A7008F80D2A2C2A5D2A3C2A312089522AE
:1008B500EBFDEAFCE9F8EDFBECFAE8F91202BA60A7
:1008C50015EDFBECFAE8F908E870020CEC1202BA37
:0708D500FF1208A780E022DA
:1008DC008F06EE14600A14600F1460141460192251
:1008EC00ED247FFF12002522ED24BFFF12002522EC
:1008FC00ED248FFF12002522ED24CFFF12002522BC
:0F090C007F011200257F0012083B0FBF64F92204
:03001300020618CA
:030003000205A64D
:0300330002051CA7
:1002E50054696D6520204D6561737572696E67008F
:1002F50020556E69742028544D552D3031290052F2
:10030500616E67653A20312D3133356D7300446573
:100315006C6179203D202031306D730044656C613E
:1003250079203D202035306D730044656C6179205E
:100335003D203130306D730043682300206D73001C
:100345004F766572666C6F7700544D552052656126
:03035500647900C8
:03000000020016E5
:0F001600758135E478FFF6D8FD75A0FF02035819
:1002BA00EB30E11320E00EC083C08289828A83E09A
:1002CA00D082D08322E3226405700EC083C0828963
:0B02DA00828A8393D082D08322E72227
:10003600E58124FEF9EFF887F0A4FFE7C5F0CEFAD4
:10004600A42EFE500205F0E7C5F0CDFBA42DFD5011
:100056000205F0E7C5F0CCA42CFC19E7601C88F07B
:10006600A42EFEE5F03DFD50010C87F0EAA42DFD1F
:10007600E5F03CFC87F0EBA42CFC19E7600F88F058
:10008600A42DFDE5F03CFC87F0EAA42CFC19E76002
:090096000588F0A42CFC02029C78
:10009F00E58124FEF9C2D1EC7060ED4E7076EFB4BD
:1000AF001000402C7B007A20C3E733F719E733F7B2
:1000BF0019E733F719E733F7090909EB33FB92D542
:1000CF00C3EB9F20D5024002FB07DADC8BF08021C7
:1000DF00191919E78FF084F7097B03E5F0D7C7C427
:1000EF008FF084C4C7C445F0C48FF084D709DBEB0D
:1000FF0019E4FAFBC5F0F802016EE4C7FB19E4C777
:10010F00F819E4C7F5F019E4CBC7FA0909097583A3
:07011F000802013602012D68
:10012600E58124FEF9C2D1E4F8F5F0FAFB758320E7
:10013600C3758204E733F719D582F909090909E875
:1001460033F8E5F033F5F0EA33FAEB33FBE89FE5F5
:10015600F09EEA9DEB9C400D07CBE89FC8E5F09E1C
:10016600C5F0EA9DCAD583C8E7FF19E7FE19E7FD82
:0C01760019E7FC30D10312019202029C38
:100182001202ABC380021819E796F6DAF902029C52
:0E019200C3E49FFFE49EFEE49DFDE49CFC227E
:1001A000C2D1C2D5EE30E707D2D1D2D512024DEC82
:1001B00030E705B2D11202551201C830D103120244
:1001C0004D30D50312025522BC000EBE0032EF8D19
:1001D000F08420D226FFADF0227B0075F008EF2FCF
:1001E000FFEE33FEEB33FBEE9DEB9C4005FBEE9DFB
:1001F000FE0FD5F0E9E4CECDCBCC227EFF7FFF22EF
:10020000EDB410005022EE8DF084FEEF54F045F076
:10021000C48DF084C4FCEF540FC445F0C48DF08449
:10022000FFADF0E4CC4FFF22EE8DF08420D2CC7EE7
:1002300008CEC5F0CDCBEF2FFFED33FD10D7079BD8
:100240005005D5F0F1229BFD0FD5F0EA22C3E49FC3
:0D025000FFE49EFE22C3E49DFDE49CFC2221
:10025D00E58124FBF9EC6480FCE76480F78005E51B
:10026D008124FBF9E5D054184404F87A04E687F0AC
:10027D00B5F00A0908DAF6E4FEFF02029CE4500428
:07028D00FE0480F5F480F18E
:1002940074F9800674FA800274FCD083D0822581BC
:0702A400F581C082C0832236
:0F02AB00E5D054182407F8E58124FCF97A0422E1
:00000001FF
