:10031200D2A8D288758912758AFC758CFCD28C752C
:10032200D80075D90475F90075E90075DA0075DB36
:100332000075DC0075DD0075DE00C2A7E5A844C1CA
:10034200F5A81206607F017D031206CF7B057A02B3
:1003520079C91206A87F027D031206CF7B057A02B5
:1003620079D91206A87F037D031206CF7B057A0294
:0703720079E81206A8D20091
:030379003001FD53
:10037C00C201C2A71206FF751200E512B4040050A8
:01038C00EC84
:10038D00E51204FF7D031206CF7B057A0279F71281
:10039D0006A8E5122431FF12069A7F3A12069A7FBB
:1003AD002012069AE51223792B242BF8B6FC005067
:0103BD001827
:1003BE00E5122329F886060886071205867B057A3C
:1003CE000279FB1206A880097B057A0279FF1206D4
:0703DE00A8051280A3809422
:0A03E500C0E0C0D075D00830DF087A
:0B03EF0075D80075D904D20130DC1C69
:1003FA00C2DC75DE0075DA1175DB1175DC1175DD8D
:0F040A001175E90075F90075D905D2DE30D812E9
:10041900C2D8E5FAFAE5EAFDEA7931F709A70D75D7
:05042900DA0030D912D9
:10042E00C2D9E5FBFAE5EBFDEA792FF709A70D75C1
:05043E00DB0030DA12C2
:10044300C2DAE5FCFAE5ECFDEA792DF709A70D75AB
:05045300DC0030DB12AB
:10045800C2DBE5FDFAE5EDFDEA792BF709A70D7595
:07046800DD00D0D0D0E0322E
:10046F00C0E0C0F0C083C082C0D0C000C001C002D5
:0E047F00C003C004C005C006EFC0073000393E
:10048D001206501206FF7F027D061206CF7B057AFB
:10049D000379081206A8D2A7792BE4F709F7792D6D
:1004AD00F709F7792FF709F77931F709F7F5E9F535
:1004BD00F9F5D875D90475DE21D007D006D005D051
:1004CD0004D003D002D001D000D0D0D082D083D0C0
:0404DD00F0D0E03249
:1004E1008C218D228E238F24C20275253B75269A7D
:0C04F1007527CAE4F528EC4D4E4F70064C
:0904FD007F3012069A22752900D5
:10050600C025C026C027C028AC21AD22AE23AF240B
:0D05160012026CBF01028002D202300241CD
:10052300C021C022C023C024AC25AD26AE27AF28EE
:1005330012009F8F2AE52A2430FF12069AC021C099
:1005430022C023C024C025C026C027C028E4FEFC47
:10055300FDAF2A1200361201828C218D228E238F49
:1005630024C025C026C027C028E4FCFDFE740AFF72
:1005730012009F8C258D268E278F280529E529B407
:030583000A8122C8
:10058600E4FDFCF515F5168E178F18C015C016C0BC
:1005960017C018FE740AFF1200368C158D168E17BA
:1005A6008F18C015C016C017C018E4FCFD7412FEE3
:1005B600E4FF12009F8C198D1A8E1B8F1CC015C06C
:1005C60016C017C018E4FCFD7403FE74E8FF1200A1
:1005D600368C158D168E178F18C015C016C017C00D
:1005E60018E4FCFD7412FEE4FF12009F8C158D16B4
:1005F6008E178F18C015C016C017C018C019C01A9C
:10060600C01BC01CE4FCFD7403FE74E8FF12003638
:100616001201828E1D8F1EAC19AD1AAE1BAF1C12B5
:1006260004E17F2E12069AAE1DAF1EE4FC7D641215
:0A06360001C8EF2430FF12069A22DB
:10064000758B90758DFED28E308FFDC28EC28F223B
:10065000758B00758D04D28E308FFDC28EC28F22B5
:100660007F3812068C7F3812068C7F3812068C7FFA
:0A0670000612068C7F0C12068C2285
:0B067A00D287D2A3C2A2D2A53087060F
:07068500C2A3D2A380F722FB
:0E068C008F80C2A2C2A5D2A3C2A312067A22F8
:0E069A008F80D2A2C2A5D2A3C2A312067A22DA
:1006A800EBFDEAFCE9F8EDFBECFAE8F9120006606C
:1006B80015EDFBECFAE8F908E870020CEC120006FC
:0706C800FF12069A80E022F8
:1006CF008F06EE14600A14600F1460141460192260
:1006DF00ED247FFF12068C22ED24BFFF12068C2221
:1006EF00ED2493FF12068C22ED24D3FF12068C22E9
:0F06FF007F0112068C7F001206400FBF64F922A4
:0300030002046F85
:030033000203E5E0
:1002C90054696D6520204D6561737572696E6700AB
:1002D90020556E69742028544D552D30312900520E
:1002E900616E67653A20312D3133356D730043688E
:1002F9002300206D73004F766572666C6F7700542A
:090309004D552052656164790034
:030000000202BA3F
:0F02BA00758133E478FFF6D8FD75A0FF020312BB
:10000600EB30E11320E00EC083C08289828A83E050
:10001600D082D08322E3226405700EC083C0828919
:0B002600828A8393D082D08322E722DD
:10003600E58124FEF9EFF887F0A4FFE7C5F0CEFAD4
:10004600A42EFE500205F0E7C5F0CDFBA42DFD5011
:100056000205F0E7C5F0CCA42CFC19E7601C88F07B
:10006600A42EFEE5F03DFD50010C87F0EAA42DFD1F
:10007600E5F03CFC87F0EBA42CFC19E7600F88F058
:10008600A42DFDE5F03CFC87F0EAA42CFC19E76002
:090096000588F0A42CFC02029C78
:10009F00E58124FEF9C2D1EC7060ED4E7076EFB4BD
:1000AF001000402C7B007A20C3E733F719E733F7B2
:1000BF0019E733F719E733F7090909EB33FB92D542
:1000CF00C3EB9F20D5024002FB07DADC8BF08021C7
:1000DF00191919E78FF084F7097B03E5F0D7C7C427
:1000EF008FF084C4C7C445F0C48FF084D709DBEB0D
:1000FF0019E4FAFBC5F0F802016EE4C7FB19E4C777
:10010F00F819E4C7F5F019E4CBC7FA0909097583A3
:07011F000802013602012D68
:10012600E58124FEF9C2D1E4F8F5F0FAFB758320E7
:10013600C3758204E733F719D582F909090909E875
:1001460033F8E5F033F5F0EA33FAEB33FBE89FE5F5
:10015600F09EEA9DEB9C400D07CBE89FC8E5F09E1C
:10016600C5F0EA9DCAD583C8E7FF19E7FE19E7FD82
:0C01760019E7FC30D10312019202029C38
:100182001202ABC380021819E796F6DAF902029C52
:0E019200C3E49FFFE49EFEE49DFDE49CFC227E
:1001A000C2D1C2D5EE30E707D2D1D2D512024DEC82
:1001B00030E705B2D11202551201C830D103120244
:1001C0004D30D50312025522BC000EBE0032EF8D19
:1001D000F08420D226FFADF0227B0075F008EF2FCF
:1001E000FFEE33FEEB33FBEE9DEB9C4005FBEE9DFB
:1001F000FE0FD5F0E9E4CECDCBCC227EFF7FFF22EF
:10020000EDB410005022EE8DF084FEEF54F045F076
:10021000C48DF084C4FCEF540FC445F0C48DF08449
:10022000FFADF0E4CC4FFF22EE8DF08420D2CC7EE7
:1002300008CEC5F0CDCBEF2FFFED33FD10D7079BD8
:100240005005D5F0F1229BFD0FD5F0EA22C3E49FC3
:0D025000FFE49EFE22C3E49DFDE49CFC2221
:10025D00E58124FBF9EC6480FCE76480F78005E51B
:10026D008124FBF9E5D054184404F87A04E687F0AC
:10027D00B5F00A0908DAF6E4FEFF02029CE4500428
:07028D00FE0480F5F480F18E
:1002940074F9800674FA800274FCD083D0822581BC
:0702A400F581C082C0832236
:0F02AB00E5D054182407F8E58124FCF97A0422E1
:00000001FF
