:1002CB00759840539BEC859B9B439B0C859B9B7527
:1002DB009AFA439B10859B9BC2AC75B74075B8408F
:1002EB00D2A8D288758912758AFC758CFCD28C7554
:1002FB00D80075D90475F90075E90075DA0075DB5E
:10030B000075DC0075DD0075DE00C2A7D2AED2AF82
:10031B0012086A7F017D031208CB7B057A02798074
:10032B001208A47F027D031208CB7B057A02799019
:10033B001208A47F037D031208CB7B057A02799FF9
:05034B001208A4D2001D
:030350003001FD7C
:10035300C201C2A71208F97F017D021208CB7521E1
:1003630001E4FCFD7932E7FE09E7FF793AE4FA7B21
:1003730001120536793AE4FA7B011208A47F027D63
:10038300021208CB752102E4FCFD7934E7FE09E78C
:10039300FF794EE4FA7B01120536794EE4FA7B01CC
:1003A3001208A47F037D021208CB752103E4FCFD30
:1003B3007936E7FE09E7FF7962E4FA7B0112053635
:1003C3007962E4FA7B011208A47F047D021208CB50
:1003D300752104E4FCFD7938E7FE09E7FF7976E44B
:1003E300FA7B011205367976E4FA7B011208A47BC5
:1003F300057A0279AE1209197B057A0279BC1209D2
:1004030019793AE4FA7B01120919794EE4FA7B016E
:100413001209197962E4FA7B011209197976E4FA6F
:100423007B011209197B057A0279BC1209190203AF
:010433005078
:0A043400C0E0C0D075D00830DF082A
:0B043E0075D80075D904D20130DC1C19
:10044900C2DC75DE0075DA1175DB1175DC1175DD3D
:0F0459001175E90075F90075D905D2DE30D8129A
:10046800C2D8E5FAFAE5EAFDEA7938F709A70D7581
:05047800DA0030D9128A
:10047D00C2D9E5FBFAE5EBFDEA7936F709A70D756B
:05048D00DB0030DA1273
:10049200C2DAE5FCFAE5ECFDEA7934F709A70D7555
:0504A200DC0030DB125C
:1004A700C2DBE5FDFAE5EDFDEA7932F709A70D753F
:0704B700DD00D0D0D0E032DF
:1004BE00C0E0C0F0C083C082C0D0C000C001C00286
:0E04CE00C003C004C005C006EFC00730003FE9
:1004DC0012085A12085A12085A1208F97F027D049F
:1004EC001208CB7B057A0279C11208A4D2A7793203
:1004FC00E4F709F77934F709F77936F709F779381A
:10050C00F709F7F5E9F5F9F5D875D90475DE21D0B9
:10051C0007D006D005D004D003D002D001D000D033
:0A052C00D0D082D083D0F0D0E032AE
:100536008C228D238E248F258B268A278928AB260D
:10054600AA27A928E412023974431202390528E5BC
:100556002870040527E527AA27A9287468120239F6
:100566000528E52870040527E527AA27A928742366
:100576001202390528E52870040527E527E5212418
:1005860030AA27A9281202390528E528700405276C
:10059600E527AA27A928743A1202390528E5287002
:1005A600040527E527AA27A9287420120239052859
:1005B600E52870040527E527C022C023C024C025EE
:1005C600E4FCFD74FCFEE4FF1201EBBFFF028003B6
:0305D60002079782
:1005D900C022C023C024C025E4FEFCFD740AFF121A
:1005E90000368C228D238E248F25C022C023C0245F
:1005F900C025E4FCFD7412FEE4FF12009F8C298DD6
:100609002A8E2B8F2CC022C023C024C025C029C00C
:100619002AC02BC02CE4FCFD7412FEE4FF12003644
:100629001201928C2D8D2E8E2F8F30C02DC02EC091
:100639002FC030E4FEFCFD740AFF120036C004C06E
:1006490005C006C007E4FCFD7412FEE4FF1201B008
:100659008C2D8D2E8E2F8F30C029C02AC02BC02CF7
:10066900E4FEFCFD7464FF1201B08F31E5312430E2
:10067900AB26AA27A9281202390528E528700405FE
:1006890027E527C029C02AC02BC02C75F064E531A5
:100699003395E0E531A4FFAEF0E5F033E450011401
:1006A900FCFD1201928C298D2A8E2B8F2CC029C01A
:1006B9002AC02BC02CE4FEFCFD740AFF1201B08F86
:1006C90031E5312430AB26AA27A928120239052899
:1006D900E52870040527E527C029C02AC02BC02CAE
:1006E90075F00AE5313395E0E531A4FFAEF0E5F0A8
:1006F90033E4500114FCFD1201928C298D2A8E2BB2
:100709008F2C852C31E5312430AA27A928120239EA
:100719000528E52870040527E527AA27A928742EA6
:100729001202390528E52870040527E527C02DC0E0
:100739002EC02FC030E4FEFCFD7430FF120182EFA1
:10074900AA27A9281202390528E52870040527E5F2
:1007590027AA27A92874201202390528E528700438
:02076900052762
:10076B00E527AA27A928746D1202390528E52870F8
:10077B00040527E527AA27A928747312023905282F
:0C078B00E528600302082F052702082F54
:10079700AB26AA27A928744F1202390528E5287025
:1007A700040527E527AA27A9287476120239052800
:1007B700E52870040527E527AA27A92874651202EA
:1007C700390528E52870040527E527AA27A92874ED
:1007D700721202390528E52870040527E527AA279C
:1007E700A92874661202390528E52870040527E54B
:1007F70027AA27A928746C1202390528E52870044E
:100807000527E527AA27A928746F1202390528E5C5
:100817002870040527E527AA27A928747712023923
:100827000528E52870020527AB26AA27A928E41280
:0308370002392261
:10001500758B90758DFED28E308FFDC28EC28F226C
:10083A00758B00758DB8D28E308FFDC28EC28F2215
:10084A00758BCD758DF8D28E308FFDC28EC28F22F8
:10085A00758B00758D04D28E308FFDC28EC28F22A9
:10086A007F381200257F381200257F381200257F35
:0A087A00061200257F0C1200252253
:0B088400D287D2A3C2A2D2A530870603
:07088F00C2A3D2A380F722EF
:0E0025008F80C2A2C2A5D2A3C2A31208842259
:0E0896008F80D2A2C2A5D2A3C2A312088422D0
:1008A400EBFDEAFCE9F8EDFBECFAE8F9120255601D
:1008B40015EDFBECFAE8F908E870020CEC120255AD
:0708C400FF12089680E022FC
:0E08CB00EF14600A14600F14601414601922F8
:1008D900ED247FFF12002522ED24BFFF12002522FF
:1008E900ED2493FF12002522ED24D3FF12002522C7
:0E08F9007F011200251F1200150FBF64F922A7
:10090700D2993099FDC2998F993099FDC2991208F1
:020917005A2262
:10091900EBFDEAFCE9F8EDFBECFAE8F912025560A7
:0109290014B9
:10092A00EDFBECFAE8F9120255FF12090708E87024
:0F093A00E40C80E17F0D1209077F0A12090722E2
:030003000204BE36
:0300330002043490
:1002800054696D6520204D6561737572696E6700F4
:1002900020556E69742028544D552D303129005257
:1002A000616E67653A20312D3133356D7300556EBF
:1002B00069742028544D552D303129003D3D3D3D78
:0B02C00000544D552052656164790028
:03000000020006F5
:0F00060075818AE478FFF6D8FD75A0FF0202CB62
:10023900CB30E11520E00FC083C08289828A83CB4D
:0C024900F0D082D08322CBF322CBF7222E
:10025500EB30E11320E00EC083C08289828A83E0FF
:10026500D082D08322E3226405700EC083C08289C8
:0B027500828A8393D082D08322E7228C
:10003600E58124FEF9EFF887F0A4FFE7C5F0CEFAD4
:10004600A42EFE500205F0E7C5F0CDFBA42DFD5011
:100056000205F0E7C5F0CCA42CFC19E7601C88F07B
:10006600A42EFEE5F03DFD50010C87F0EAA42DFD1F
:10007600E5F03CFC87F0EBA42CFC19E7600F88F058
:10008600A42DFDE5F03CFC87F0EAA42CFC19E76002
:090096000588F0A42CFC02021BF9
:10009F00E58124FEF9C2D1EC7060ED4E7076EFB4BD
:1000AF001000402C7B007A20C3E733F719E733F7B2
:1000BF0019E733F719E733F7090909EB33FB92D542
:1000CF00C3EB9F20D5024002FB07DADC8BF08021C7
:1000DF00191919E78FF084F7097B03E5F0D7C7C427
:1000EF008FF084C4C7C445F0C48FF084D709DBEB0D
:1000FF0019E4FAFBC5F0F802016EE4C7FB19E4C777
:10010F00F819E4C7F5F019E4CBC7FA0909097583A3
:07011F000802013602012D68
:10012600E58124FEF9C2D1E4F8F5F0FAFB758320E7
:10013600C3758204E733F719D582F909090909E875
:1001460033F8E5F033F5F0EA33FAEB33FBE89FE5F5
:10015600F09EEA9DEB9C400D07CBE89FC8E5F09E1C
:10016600C5F0EA9DCAD583C8E7FF19E7FE19E7FD82
:0C01760019E7FC30D1031201A202021BA9
:1001820012022AC380021819E637F6DAF902021BB4
:1001920012022AC380021819E796F6DAF902021B44
:0E01A200C3E49FFFE49EFEE49DFDE49CFC226E
:1001B000E58124FEF9C2D1EC30E705D2D11201A2CB
:1001C000191919E730E70FB2D10909097A04C3E414
:0C01D00097C719DAFA090909090200A60C
:1001DC00E58124FBF9EC6480FCE76480F78005E59D
:1001EC008124FBF9E5D054184404F87A04E687F02E
:1001FC00B5F00A0908DAF6E4FEFF02021BE450042B
:07020C00FE0480F5F480F10F
:1002130074F9800674FA800274FCD083D08225813D
:07022300F581C082C08322B7
:0F022A00E5D054182407F8E58124FCF97A042262
:00000001FF
